000000007900000000040000000018CHIC POOSH FIZZ FLLA X 6 77930170     
000000007900000000040000000023BOM BON O BON CAFE CHOC C400023       
000000007900000000040000000024CHIC TOP LINE KISS MEN X 100024       
000000007900000000040000000271ALFA BON O BON BCO X 40 G7790040613607
000000007900000000040000000271ALFA BON O BON BCO X 40 G77960825     
000000007900000000040000000273ALFA BON O BON BLACK X 407790040613706
000000007900000000040000000276GALL RECETAS  PEPAS X 2007790040740006
000000007900000000040000000291ALFA TOFI TRIPLE NEG 78 G7790040484801
000000007900000000040000000301ALFA MINITORTA AGUILA 72 7790040298705
000000007900000000040000000301ALFA MINITORTA AGUILA 72 77928115     
000000007900000000040000000308CARAM BUTTER TOFFEES CERE7790580240905
000000007900000000040000000309CARAM ARCOR CRISTAL SUELT111          
000000007900000000040000000327GOM MOGUL FRUTA X 50 GR7790580618315
000000007900000000040000000330GOM ROLLO MOGUL SURTIDAS 7790580602000
000000007900000000040000000358CARAM TOP LINE C MIX BERR7790580308315
000000007900000000040000000359CARAM TOP LINE C MIX CITR7790580308414
000000007900000000040000000365CARAM BUTTER TOFFEES VAIN4976         
000000007900000000040000000372CARAM BUTTER TOFFEES MINT4978         
000000007900000000040000000373CARAM BUTTER TOFFEES CHOC4977         
000000007900000000040000000392CHUP MR POPS FRUTAL12243        
000000007900000000040000000398BARRA CEREAL MIX LIGHT 2277915818     
000000007900000000040000000400BARRA CEREAL MIX CLASICO 77916501     
000000007900000000040000000404BARRA CEREAL MIX CHOCO 2377916525     
000000007900000000040000000408BARRA CEREAL MIX FRUT/YOG77935274     
000000007900000000040000000414BARRA CEREAL MIX LIGHT DZ77915368     
000000007900000000040000000430BARRA CEREAL & FRUTA ARCO7790580170219
000000007900000000040000000431BARRA CEREAL & FRUTA ARCO7790580170011
000000007900000000040000000435CHIC TOP LINE FRUTA TABLE77916389     
000000007900000000040000000436CHIC TOP LINE MENTA TABLE77916426     
000000007900000000040000000438CHIC TOP LINE CONF MENTOL7790580386511
000000007900000000040000000438CHIC TOP LINE CONF MENTOL7790580592417
000000007900000000040000000439CHIC TOP LINE CONF STRONG7790580388317
000000007900000000040000000439CHIC TOP LINE CONF STRONG7790580591915
000000007900000000040000000458CHIC TOP LINE CONF FRUTA 7790580386214
000000007900000000040000000458CHIC TOP LINE CONF FRUTA 7790580591816
000000007900000000040000000459CHIC TOP LINE CONF MENTA 7790580386313
000000007900000000040000000459CHIC TOP LINE CONF MENTA 7790580591717
000000007900000000040000000464OBLEA BON O BON NEG 30 GR7790580346515
000000007900000000040000000468CONF ROCKLETS CHOCO 40 GR7790580327415
000000007900000000040000000478MANI C/ CHOCO ROCKLETS 407790580327613
000000007900000000040000000483BOCAD CABSHA10            
000000007900000000040000000485BOCAD CABSHA BLANCO 10 GR5673         
000000007900000000040000000493BOCAD AGUILA MEDALLON MEN4957         
000000007900000000040000000500BOM BON O BON CHOCO 20 GR77930026     
000000007900000000040000000515BOM BON O BON BCO 17 GR77930019     
000000007900000000040000000516BOM BON O BON LECHE 17 GR77930002     
000000007900000000040000000516BOM BON O BON LECHE 17 GR77941626     
000000007900000000040000000542CHOC COFLER BLOQ ALM 55 G7790580665708
000000007900000000040000000547CHOC TOFI BCO 27 GR77949493     
000000007900000000040000000548CHOC COFLER AIR BCO 30 GR77949035     
000000007900000000040000000553CHOC TOFI NEG 28 GR77949417     
000000007900000000040000000554CHOC COFLER AIR NEG 30 GR77949080     
000000007900000000040000000555CHOC COFLER AIR NEG 60 GR7790407490704
000000007900000000040000000563CHOC COFLER AIR COMB 30 G77949059     
000000007900000000040000000564CHOC COFLER AIR COMB 60 G7790407490605
000000007900000000040000000565CHOC COFLER AIR COMB 100 7790407049018
000000007900000000040000000595CHOCOLATIN ARCOR BCO 25 G7790580607418
000000007900000000040000000596CHOCOLATIN ARCOR NEG 25 G7790580607210
000000007900000000040000001037BOM ARCOR SELECCION CAJA 7790580412807
000000007900000000040000001051BIZC ARCOR AZUCARADOS 2257790580438500
000000007900000000040000001054GALL OPERA 92 GR77903518     
000000007900000000040000001066GALL ARCOR PEPAS 200 GR7790580739904
000000007900000000040000001067GALL AMOR CUPIDO 112 GR77908964     
000000007900000000040000001077GALL MANA RELL VAIN 165 G7790580439200
000000007900000000040000001083GALL MANA LECHE 145 GR7790040720206
000000007900000000040000001083GALL MANA LECHE 145 GR7790580763008
000000007900000000040000001087GALL MANA VAIN RELL CHOCO7790580439309
000000007900000000040000001100GALL DIVERSION NUEVO MIX 7790580712211
000000007900000000040000001106GALL TORTITAS CHOCO 125 G7790040677005
000000007900000000040000001122GALL TRAVIATA 120 GR7790040002104
000000007900000000040000001130GALL CRIOLLITAS 105 GR7790040057081
000000007900000000040000001176GALL KESITAS 75 GR7790040003606
000000007900000000040000001179GALL REX ORIGINAL 75 GR7790040003569
000000007900000000040000001181GALL SALADIX CALABRESA 107790580716806
000000007900000000040000001183GALL SALADIX JAMON 100 GR7790580716707
000000007900000000040000001184GALL SALADIX PIZZA 100 GR7790580697303
000000007900000000040000001187GALL SALADIX PARMESANO 107790580717407
000000007900000000040000001929CHIC TOP LINE STRONG TABL77916396     
000000007900000000040000001958HELADO ARCOR BARRITA AGUI77939548     
000000007900000000040000001960HELADO ARCOR SPACE FRUTIL7790580394400
000000007900000000040000001961HELADO ARCOR SPACE CEREZA7790580394509
000000007900000000040000001962HELADO ARCOR SPACE MANZAN7790580394608
000000007900000000040000001963HELADO ARCOR TOFI CROCANT7790580394707
000000007900000000040000001964HELADO ARCOR SLICE FRUTIL7790580394806
000000007900000000040000001965HELADO ARCOR SLICE MENTA 7790580394905
000000007900000000040000001966HELADO ARCOR SLICE MIX DE7790580395100
000000007900000000040000001967HELADO ARCOR BOMBON 60 CC7790580395209
000000007900000000040000001969HELADO ARCOR CORAZON BON 7790580395605
000000007900000000040000001970HELADO ARCOR MINI TORTA A7790580395704
000000007900000000040000001971HELADO ARCOR COFLER ALMEN7790580395803
000000007900000000040000001973HELADO ARCOR COFLER BLANC7790580396008
000000007900000000040000001974HELADO ARCOR COFLER BLOCK7790580396107
000000007900000000040000001976HELADO ARCOR KOPA DULCE D7790580396800
000000007900000000040000001977HELADO ARCOR KOPA FRUTILL7790580396909
000000007900000000040000001978HELADO ARCOR KOPA CHOCOLA7790580397005
000000007900000000040000001979HELADO ARCOR CONO ROCKLET7790580397104
000000007900000000040000001980HELADO ARCOR CONO BON O B7790580397203
000000007900000000040000002043HELADO ARCOR SLICE MANZAN7790580398309
000000007900000000040000002236CHUP MR POPS EVOLUTION CE77924964     
000000007900000000040000002239CHIC TOP LINE DEFENSE TAB77916419     
000000007900000000040000002241OBLEA BON O BON BCO 30 GR7790580346614
000000007900000000040000002254GALL MELITAS 170 GR7790040001855
000000007900000000040000002272GALL OPERA 55 GR77903501     
000000007900000000040000002293CHIC TOP LINE CONF DEFENS7790580598907
000000007900000000040000002778BARRA CEREAL & FRUTA ARCO77937674     
000000007900000000040000002779BARRA CEREAL & FRUTA ARCO77937667     
000000007900000000040000002788GALL REX JAMON SERRANO 607790040944602
000000007900000000040000002789GALL REX QUESO 60 GR7790040944800
000000007900000000040000002956CHIC TOP LINE ONE MENTA 877954923     
000000007900000000040000003084PAST MENTHO PLUS C MIX BE77922731     
000000007900000000040000003091PAST MENTHO PLUS C CITRUS77922724     
000000007900000000040000003092PAST MENTHO PLUS CEREZA 377922656     
000000007900000000040000003093PAST MENTHO PLUS STRONG 377922670     
000000007900000000040000003111PAST MENTHO PLUS MENTHOL 77922663     
000000007900000000040000003124PAST MENTHO PLUS MENTA 3077922694     
000000007900000000040000003125PAST MENTHO PLUS S/AZ CHE77946805     
000000007900000000040000003128PAST MENTHO PLUS S/AZ MEN77946829     
000000007900000000040000003218PAST MENTHO PLUS S/AZ POM77946836     
000000007900000000040000003226BARRA SER MANZANA 23 GR77936264     
000000007900000000040000003227BARRA SER FRUTILLA 23 GR77936271     
000000007900000000040000003228BARRA SER DURAZNO 23 GR77936288     
000000007900000000040000003259CHIC TOP LINE SANDIA/MENT77919489     
000000007900000000040000003260ALFA SER 42 GRS77955272     
000000007900000000040000003267BOCAD HOLANDA 24 GRS7790580104207
000000007900000000040000003269BARRA BON O BON 35 GRS77932303     
000000007900000000040000003313BOM CABSHA ALPINE COCO 9 3886         
000000007900000000040000003314BOM CABSHA ALPINE LECHE 93887         
000000007900000000040000003353HELADO ARCOR CONO TOFI 137790580389109
000000007900000000040000003355GALL FORMIS CHOCO 72 GR7790040534407
000000007900000000040000003357GALL FORMIS CHOCO/DDL 1087790040534704
000000007900000000040000003370CHIC TOP LINE TABLETA SAN77919472     
000000007900000000040000003392GALL SALADIX DUO 80 GR7790040374607
000000007900000000040000003393GALL SER TOST SALVADO 1057790040999107
000000007900000000040000003394GALL SER TOST 105 GR7790040001022
000000007900000000040000003395GALL TORTITAS BLACK 125 G7790040676800
000000007900000000040000003395GALL TORTITAS BLACK 125 G7790580538903
000000007900000000040000003396GALL DULZURAS 165 GR7790040940109
000000007900000000040000003397GALL DULZURAS LIMON 165 G7790040949300
000000007900000000040000003409GALL SER SALVADO 145 GRS7790040055414
000000007900000000040000003410GALL PANCHITAS CHOC RELL 7790040944503
000000007900000000040000003414CHOC COFLER MACIZO LECH. 7790580665609
000000007900000000040000003417GALL SONRISAS VAINILLA 127790040931800
000000007900000000040000003417GALL SONRISAS VAINILLA 127790040940505
000000007900000000040000003522ALFA MINITORTA AGUILA BRO7790040298804
000000007900000000040000003523ALFA MINITORTA AGUILA COC7790040298903
000000007900000000040000003556ALFA BON O BON TRIPLE NEG7790040614000
000000007900000000040000003602GALL REX 3D CAPRESE 60 GR7790040942103
000000007900000000040000003609BOM TOFI LECHE 15 GR3021         
000000007900000000040000003610BOM TOFI BLANCO 15 GR3022         
000000007900000000040000003655GALL SONRISAS FRAMBU 118 7790040931206
000000007900000000040000003656GALL MERENGADAS CHOC X 937790040932906
000000007900000000040000003657GALL MELLIZAS 112 GRS7790040930209
000000007900000000040000003658GALL CHOCOLINAS SHREK 1707790040929906
000000007900000000040000003659GALL RUMBA SHREK ORIGINAL7790040930704
000000007900000000040000003663CHOC AGUILA DOR MOUSSE RE7790580312015
000000007900000000040000003664ALFA BYN TRIPLE BCO 74 GR7790040997509
000000007900000000040000003665ALFA BYN TRIPLE NEGRO 74 7790040997202
000000007900000000040000003666CHOC COFLER AIREADO COMB 7790407490117
000000007900000000040000003667CHOC COFLER AIREADO LECHE7790407049001
000000007900000000040000003667CHOC COFLER AIREADO LECHE7790407490018
000000007900000000040000003682CHOC COFLER BLOCK 110 GR.77922120     
000000007900000000040000003683BARRA COFLER EXTRA CROCAN77932334     
000000007900000000040000003684BARRA COFLER EXTRA COCO 477932327     
000000007900000000040000003734CHOC COFLER LECHE C/ALMEN77933416     
000000007900000000040000003735CHOC COFLER LECHE 28 GRS77933409     
000000007900000000040000003736CHOC COFLER BCO Y COOKIES77933478     
000000007900000000040000003737ALFA BAGLEY BYN BLANCO 507790040996403
000000007900000000040000003738GALL AMOR 112 GRS7790040930407
000000007900000000040000003742GALL RUMBA TRAD 112 GRS7790040930506
000000007900000000040000003743ALFA BAGLEY BYN NEGRO 50 7790040996304
000000007900000000040000003748CHIC TOP LINE MANZANA MEN77940124     
000000007900000000040000003750CHOC COFLER LECHE Y CEREA77933423     
000000007900000000040000003752ALFA BON O BON TRIPLE CHO7790040609501
000000007900000000040000003764CHUP MR POPS EVOLUTION BL7790580250515
000000007900000000040000003801GALL MERENGADAS X 93 GRS7790040932708
000000007900000000040000003813GALL SER CRACKER 120 GRS7790040939400
000000007900000000040000003814GALL SER DULCE 130 GRS7790040941601
000000007900000000040000003815GALL TORTITAS SUPER CHOCO7790040677203
000000007900000000040000003816GALL MELITAS AVENA MIEL 17790040269804
000000007900000000040000003817GALL MELITAS MIX CEREAL 17790040269606
000000007900000000040000003818GALL OPERA TRIPLE ORIGINA7790040936003
000000007900000000040000003819GALL OPERA TRIPLE CHOCOLA7790040936201
000000007900000000040000003822CUBANITOS COFLER S/AMARGO77949349     
000000007900000000040000003823CUBANITOS COFLER LECHE 1677949233     
000000007900000000040000003826MANI COFLER BLOCK 40 GRS7790580491512
000000007900000000040000003827BARRA COFLER EXTRA MANI 477932310     
000000007900000000040000003839GALL FORMIS VLLA CHOCO 107790040534803
000000007900000000040000003841GALL CRIOLLITAS MAS 190 G7790040046962
000000007900000000040000003843GALL MACUCAS 160 GRS7790040467101
000000007900000000040000003875GALL DULZURAS NARANJA 1657790040940000
000000007900000000040000003939GALL SURTIDO BAGLEY 400 G7790040929609
000000007900000000040000003944GALL HOGARENAS MIX CEREAL7790040566903
000000007900000000040000004003GALL MANA VAIN 145 GRS7790040720107
000000007900000000040000004004BARRA CEREAL MIX CHOC/COC77937988     
000000007900000000040000004021BIZC ARCOR AZUCARADOS 2257790040345102
000000007900000000040000004038HELADO ARCOR AGUILA GRANI7790580388409
000000007900000000040000004042HELADO ARCOR SLICE BATIDO7790580388201
000000007900000000040000004044BARRA CEREAL & FRUTA ARCO7790040334816
000000007900000000040000004045BARRA CEREAL & FRUTA ARCO7790040334618
000000007900000000040000004098CHOC MINI ROCKLETS 10 GRS77942432     
000000007900000000040000004106GALL PANCHITAS RELL CHOC 7790040933408
000000007900000000040000004113CARAM CREMINO COCO 5.88 G3058         
000000007900000000040000004114CARAM CREAMIX DURAZNO-CRE3059         
000000007900000000040000004115CARAM CREAMIX FRUTILLA-CR3060         
000000007900000000040000004116CARAM CREAMIX WILD BERRY 3061         
000000007900000000040000004117CARAM CREAMIX MANZANA-CRE3062         
000000007900000000040000004118CARAM RODAJAS SURTIDAS 4.3063         
000000007900000000040000004119CARAM MIEL RELLENO 6 GRS3064         
000000007900000000040000004120CARAM VACA LECHERA 12 GRS3065         
000000007900000000040000004123GALL CRIOLLITAS LACTEADAS7790040047013
000000007900000000040000004124BIZC DULZURAS AGRIDULCE 27790040741409
000000007900000000040000004151HELADO BC AMERICANA-DURAZ7790580418502
000000007900000000040000004152HELADO BC AMERICANA-FRUTI7790580418601
000000007900000000040000004185CHIC TOP LINE SANDIA MENT7790580258917
000000007900000000040000004219CHOC COFLER BLOCK C/MANI 77953124     
000000007900000000040000004225BARRA CEREAL MILK CHOC 2177938428     
000000007900000000040000004226CHIC TOP LINE VAIN/MENTA 77938541     
000000007900000000040000004229CARAM BUTTER TOFFEES CAFE3068         
000000007900000000040000004255GALL HOGARENAS SALVADO 207790040669109
000000007900000000040000004267CHOC TOFI RELLENO 130 GRS7790580722517
000000007900000000040000004268BOM BON O BON LECHE CAJA               
000000007900000000040000004381CHOC TOFI BCO. RELL. 27 G77974648     
000000007900000000040000004394BOM TOFI LECHE 15 GR77972279     
000000007900000000040000004395BOM TOFI BLANCO 15 GR77972392     
000000007900000000040000004402CHOC TOFI LECHE 55 GRS7790580746612
000000007900000000040000004403CHOC AGUILA AMARGO LIGHT 7790580495411
000000007900000000040000004404CHUP TPOP DUO 16 GRS3075         
000000007900000000040000004405CHUP TPOP COOL 16 GRS3076         
000000007900000000040000004406CHUP TPOP DOTS 16 GRS3077         
000000007900000000040000004407CHOC TOFI 25 ANOS LECHE 277974631     
000000007900000000040000004412GALL TENTACIONES MOUSSE 87790040948709
000000007900000000040000004413GALL TENTACIONES CHOCO BC7790040948808
000000007900000000040000004414CHOC AGUILA DOR LIMON 75 7790580495619
000000007900000000040000004415CHOC COFLER LIGHT YOG FRU77935007     
000000007900000000040000004431CHOC AGUILA LIGHT 100 GR7790580495510
000000007900000000040000004459BOM BON O BON CAJA X 510 7790580225926
000000007900000000040000004459BOM BON O BON CAJA X 510 7790580300005
000000007900000000040000004460BOM BON O BON CHOCOLATE C7790580300203
000000007900000000040000004487BOCAD CABSHA CAJA X 48 UN7790407022011
000000007900000000040000004488BOCAD CABSHA X 18 UN7790580219000
000000007900000000040000004489BOM CABSHA COCO CAJA X 287790580200800
000000007900000000040000004542BOM SURTIDOS ARCOR X 270               
000000007900000000040000004600ALFA MINITORTA CHOC/BLANC7790040316508
000000007900000000040000004601OBLEA BON O BON SNACK X 47790580493318
000000007900000000040000004602GOM MOGUL EUCALIPTUS X 507790580618216
000000007900000000040000004603FRUTI GELATIN TIBURONCITO7790580133214
000000007900000000040000004604GOM BRATZ CON STICKERS X 7790580257514
000000007900000000040000004605FRUTI GELATIN CEREBRITOS 7790580134112
000000007900000000040000004607PAST MENTHO PLUS SOUR MIX7790580469313
000000007900000000040000004608CARAM FRUTIFRU BANANA X 377918659     
000000007900000000040000004609CARAM FRUTIFRU FR DEL BOS77918680     
000000007900000000040000004610CARAM FRUTIFRU FRUTILLA X77918673     
000000007900000000040000004611CARAM FRUTIFRU ANANA X 3577918666     
000000007900000000040000004612PAST MENTHO PLUS SOUR MIX7790580469214
000000007900000000040000004613CARAM TOP LINE MENTA X 167790580305314
000000007900000000040000004614CARAM TOP LINE DURAZNO X 7790580305215
000000007900000000040000004615CARAM TOP LINE GREEN TEA 7790580595715
000000007900000000040000004616CARAM TOP LINE FRUTA X 167790580305512
000000007900000000040000004617GOM ROLLO MOGUL TROP X 357790580601614
000000007900000000040000004618CHIC TOP LINE MENTOL X 6.77916457     
000000007900000000040000004619BARRA SER CITRUS X 23 G77934574     
000000007900000000040000004620BARRITA CEREAL MIX YOG/VA77935144     
000000007900000000040000004623HALLOW SARCOFAGO X 71 G7790580192310
000000007900000000040000004624CHOC COFLER CON ALMENDRAS7790580363017
000000007900000000040000004625CHOC COFLER CROCANTE X 107790580362911
000000007900000000040000004626CHOC COFLER CON CEREAL X 7790580363116
000000007900000000040000004627CHOC AGUILA X 100 G 7790407031013
000000007900000000040000004628CHOC AGUILA BLANCO FAM X 7790407031075
000000007900000000040000004629BARRA CHOCOLATE RALLY COF77917850     
000000007900000000040000004631PAST MENTHO PLUS MIEL X 377922687     
000000007900000000040000004632PAST MENTHO PLUS LIMON X 77922700     
000000007900000000040000004633CARAM MENTHO PLUS CHERRY               
000000007900000000040000004634PAST MENTHO PLUS DZNO S/A77946812     
000000007900000000040000004635CHOC COFLER BLANCO X 55 G7790580349219
000000007900000000040000004636CHOC COFLER BLANCO AIREAD7790407490407
000000007900000000040000004637CHOC AGUILA EXTRA FINO X 7790580310318
000000007900000000040000004638CHOC AGUILA DOR CAPUCCINO7790580453916
000000007900000000040000004639BARRA CHOCOLATE COFLER EX77953049     
000000007900000000040000004641HUEV CHOCO TOYS COB SORPR77957443     
000000007900000000040000004642ALFA CABSHA CHOCOLATE X 47790040444300
000000007900000000040000004643CHOC AGUILA X 14 G77931528     
000000007900000000040000004647GOM DE MASCAR HALLOWEEN X              
000000007900000000040000004648HALLOW CHOC CONFIT X 20 G7790580418816
000000007900000000040000004660PAST MIEL CON MENTOL X 2877913654     
000000007900000000040000004661CARAM MIEL CON LIMON X 2877913579     
000000007900000000040000004798GALL MANA LIVIANAS COCO X7790040720503
000000007900000000040000004799GALL MANA LIVIANAS LECHE               
000000007900000000040000004800GALL MANA RELL LIMON X 167790040439108
000000007900000000040000004801GALL MANA RELL FRUT X 1657790040439009
000000007900000000040000004802GALL DIVERSION SURTIDAS X7790040711105
000000007900000000040000004803TOSTADAS CRIOLLITAS X 1107790040941007
000000007900000000040000004805GALL REX 3  QUESO X 60 G              
000000007900000000040000004806GALL REX 3 CAPRESE X 60 G              
000000007900000000040000004807GALL SERRANITAS CROCANTES7790040725003
000000007900000000040000004810GALL CRIOLLITAS UNTABLES 7790040946101
000000007900000000040000004813GALL CHOCO CHIPS X 135 G7790040756809
000000007900000000040000004814GALL HOGAREÑAS SESAMO X 17790040566002
000000007900000000040000004815GALL SONRISAS CHOCOLATE7790040931404
000000007900000000040000004816GALL SONRISAS MULTI FRUTA7790040927001
000000007900000000040000004817GALL BATMAN CHOCOLATE X 17790040343009
000000007900000000040000004824CARAM MASTICABLES ARCOR S              
000000007900000000040000004825CARAM DUROS ARCOR SUELTOS              
000000007900000000040000004842GALL BAGLEY SALV  X 214 G7790040999404
000000007900000000040000004866CHIC TOP LINE NJA/MTA X 677940117     
000000007900000000040000004867CHIC TOP LINE MANGO/MEL X77927705     
000000007900000000040000004868GOM MOGUL TROPICAL X 50 G7790580467319
000000007900000000040000004869GOM MOGUL MENTA FUERTE X 7790580618117
000000007900000000040000004870PAST MENSAJITOS X 30 GRS7790580530334
000000007900000000040000004871GOM FRUTIGELATIN OSITOS X7790580615512
000000007900000000040000004872GOM FRUTIGELATIN VIBORITA7790580133108
000000007900000000040000004882GALL OPERA TRIPLE FRUTI X7790040936102
000000007900000000040000004885GALL MANA RELL CHOC X 1657790040439306
000000007900000000040000004889GALL MANA RELL CHOCO VAIN7790040439207
000000007900000000040000004906GALL SALADIX PROVOLETA X 7790040718807
000000007900000000040000004909CHIC TOP LINE DEFENSE X 17790580389819
000000007900000000040000004909CHIC TOP LINE DEFENSE X 17790580598914
000000007900000000040000004917TURRON CROCANTE MANI X 897790580391102
000000007900000000040000004918TURRON DE MANI X 85 GRS7790580391300
000000007900000000040000004919TURRON MANI C/FRUT X 85 G7790580398507
000000007900000000040000004920TURRON SEMBLAN MAN/ALM X 7790380011903
000000007900000000040000004921GARRAP ARCOR MANI X 80 GR7790580195809
000000007900000000040000004922CONF MANI C/COLOR X 120 G7790580416300
000000007900000000040000004925CARAM CUBIX X 34.4 GRS7790580388607
000000007900000000040000004926CHUP BICHOX X 12.5 GRS7790580327019
000000007900000000040000004928CHUP MADAGASCAR X 12.5 GR7790580596606
000000007900000000040000004929DRACUDIENTE X 11 GRS120          
000000007900000000040000004930HUEV TOYS X UNI77938022     
000000007900000000040000004945BOCAD CABSHA X 120 GRS              
000000007900000000040000004948GALL MERENG DUO X 70 GRS7790040948303
000000007900000000040000004949GALL MERENG JUGUITO X 75 7790040948204
000000007900000000040000004950GOM MADAGASCAR X 30 GRS7790580257910
000000007900000000040000004951BOM BON O BON CAJA SURTID7790580301002
000000007900000000040000004952CARAM BUTTER COLECT CAFE 7790580167806
000000007900000000040000004953CARAM BUTTER COLECT MINT 7790580240608
000000007900000000040000004954CARAM BUTTER COLEC CAFE X7790580499501
000000007900000000040000004960CHIC TOP LINE ROLLING MTA77938527     
000000007900000000040000004964HUEV POWER RANGERS X 22 G44964        
000000007900000000040000004969BUDIN ARCOR C/FRUTAS X 257790040437807
000000007900000000040000004970PAN DULCE ARCOR CON FRUT 7790040333000
000000007900000000040000004971HALLOW GOM HORROR X 30 GR7790580192617
000000007900000000040000004974CHOC COFLER LECH Y CER X 7790580349318
000000007900000000040000004975CHOC COFLER LECH X 55 GRS7790580349011
000000007900000000040000004976CHOC COFLER CROCAN X 55 G7790580349417
000000007900000000040000004977CHOC COFLER LECH Y ALM X 7790580349110
000000007900000000040000004980GALL MANA LIMON X 145 GRS7790040720305
000000007900000000040000004981GALL COQUITAS X 170 GRS7790040929807
000000007900000000040000005002BOM CABSHA IRISH X 130 GR7790580201708
000000007900000000040000005006GALL MELITAS AVE PAS X 237790040927209
000000007900000000040000005007ALFA TOFI BCO TRIPLE X 737790040953703
000000007900000000040000005008GALL SER CER/FRUTAS MZA X7790040933804
000000007900000000040000005010GALL PORTEÑITAS X 130 GRS7790040994904
000000007900000000040000005015CHOC TOFI LIGHT X 28 GRS77974655     
000000007900000000040000005016CHOC ROCKLETS MAX X 50 GR7790580420505
000000007900000000040000005018OBLEA ARCOR FRUTILLA X 147790040928107
000000007900000000040000005019OBLEA ARCOR CHOCO X 145 G7790040928008
000000007900000000040000005020GALL REX ORIGINAL POCKET 7790040954212
000000007900000000040000005036PAST MENTHO PLUS TROPICAL77922717     
000000007900000000040000005055ALFA BAGLEY X 47 GRS7790040953604
000000007900000000040000005077OBLEA BON O BON CHOC X 277790580346218
000000007900000000040000005078CHOC COFLER EXTRA MENTA X77995513     
000000007900000000040000005079CHOC COFLER LIGHT COCO/DD77995506     
000000007900000000040000005080CHOC COFLER LIGHT MOUSSE/77995490     
000000007900000000040000005105HUEV BEN 10 X UNI77995452     
000000007900000000040000005106PAST MENTHO PLUS S/AZ MZN77963697     
000000007900000000040000005144GALL HOGAREÑAS 7 SEM X 187790040569706
000000007900000000040000005145GALL CEREAL MIX SNACKS X 7790040953802
000000007900000000040000005146PAST MENTHO PLUS SOUR MIX7790580787318
000000007900000000040000005156CHOC TOFI LECHE X 100 GRS7790580746810
000000007900000000040000005157GOM MOGUL GUSAN X 150 GRS7790580680800
000000007900000000040000005159CHOC TOFI BCO X 55 GRS.7790580746711
000000007900000000040000005162CHIC TOP LINE DRAG FRUIT 77969378     
000000007900000000040000005174CARAM VACA LECHERA CAJA X7790580106409
000000007900000000040000005202CHUP BEN 10 C/SORP X UNI7790580689810
000000007900000000040000005203CARAM BEN 10 MASTICABLES77968999     
000000007900000000040000005205CHUP BRATZ C/SORPRESA X U77938657     
000000007900000000040000005213CARAM GAJITOS ARCOR X UNI45213        
000000007900000000040000005214CARAM FRESH CRISTAL X UNI45214        
000000007900000000040000005215CARAM BUTTER TOFFEES DDL 45215        
000000007900000000040000005216CARAM BUTTER TOFFEES SURT45216        
000000007900000000040000005217CARAM ARCOR RELL FRUTALES45217        
000000007900000000040000005218CARAM BUTTER TOFFEES LIGH45218        
000000007900000000040000005230PAST MENTHOPLUS DUO UVA/L77978769     
000000007900000000040000005232CHIC TOP LINE DEFENSE POT7790580679217
000000007900000000040000005233BARRA CEREAL MIX YOG/FLLA77995407     
000000007900000000040000005234CHOC AGUILA CLAS LEC/ALM 7790580955618
000000007900000000040000005235CHOC AGUILA CLAS PAS/ALM 7790580955717
000000007900000000040000005245BARRA BON O BON CHOC X 3577932136     
000000007900000000040000005246BOM BON O BON SUAVE X 17 77934567     
000000007900000000040000005247BOM BON O BON X 510 GRS7790580357016
000000007900000000040000005248BOM BON O BON BCO X 510 G7790580300104
000000007900000000040000005249CEREAL MIX RELL MZNA X 327790040258013
000000007900000000040000005250CEREAL MIX RELL FLLA X 327790040258211
000000007900000000040000005251CEREAL MIX RELL DZNO X 327790040258617
000000007900000000040000005253BARRA SER FLLA / CHOC X 277934581     
000000007900000000040000005259HELADO ARCOR SPACE LIMON 7790580396305
000000007900000000040000005267HELADO KOPA BAN SPLIT X 17790580480707
000000007900000000040000005269HELADO ARCOR AGUILA DOR X7790580482909
000000007900000000040000005272CHOC ROCKLETS X 20 GRS7790580421007
000000007900000000040000005276GOM MOGUL COCODRILOS X 307790580616717
000000007900000000040000005277GOM MOGUL PIECITOS X 30 G7790580617813
000000007900000000040000005278GOM MOGUL SHARKS X 30 GRS7790580200114
000000007900000000040000005279CHOC CABSHA C/MANI X 25 G7790580347703
000000007900000000040000005280CHOC AGUILETS ALM X 9 GRS45280        
000000007900000000040000005295CHIC TOP LINE KISS WOMEN 7790580318512
000000007900000000040000005296CHIC TOP LINE KISS MEN X 045296       
000000007900000000040000005296CHIC TOP LINE KISS MEN X 7790580318413
000000007900000000040000005297GALL TENTACIONES LIMON X 7790040953109
000000007900000000040000005298GALL TENTACIONES FLLA X 87790040953208
000000007900000000040000005331GALL CRIOLLITAS X 100 GRS7790040377707
000000007900000000040000005341HALLOW FANTASMA X 120 G7790580243104
000000007900000000040000005342HALLOW CHUP + FIG X 12 G7790580518912
000000007900000000040000005343HALLOW PAST TERROR X 20 G7790580733902
000000007900000000040000005344HALLOW CALABAZA X UNI7802225393447
000000007900000000040000005345HALLOW DRACUDIENTES X 11 77927880     
000000007900000000040000005346GOM MOGUL ANGEL X 30 GRS7790580743611
000000007900000000040000005351CHUP CASI ANGELES X 12.5 7790580734817
000000007900000000040000005364GALL MELITAS AVE PAS X 927790040997912
000000007900000000040000005367BARRA SER ANANA / KIWI X 77970183     
000000007900000000040000005376BOM BON O BON CHOC BOLSA 7790580300807
000000007900000000040000005377BOM BON O BON BCO BOLSA X7790580300708
000000007900000000040000005378BOM BON O BON CLASIC X 147790580300609
000000007900000000040000005379BOM BON O BON BCO CAJA X 7790580300401
000000007900000000040000005380BOM BON O BON CHOC CAJA X7790580300500
000000007900000000040000005381BOM BON O BON CLASIC CAJA7790580300302
000000007900000000040000005382HELADO CONO COFLER CHOC/B7790580533304
000000007900000000040000005383MANI C/CHOC ARCOR X 40 GR7790580327514
000000007900000000040000005384PAST MENTHO PLUS S/AZ LIM77927989     
000000007900000000040000005398BARRA CEREAL MIX GRANO X 77944740     
000000007900000000040000005427CUBANITO ARCOR LIMON X 257790580601003
000000007900000000040000005428BARRA CEREAL MIX GRAN/CHO77944030     
000000007900000000040000005430CUBANITO ARCOR LIMON X UN77970657     
000000007900000000040000005431HUEV TOYS SORP P/TODOS X 7790580357702
000000007900000000040000005450GALL MANA FIBRAS X 150 G7790040533202
000000007900000000040000005462GALL CRIOLLITAS 3 CEREALE7790040545939
000000007900000000040000005466TURRON ARCOR MANI X 25 GR77940131     
000000007900000000040000005473PAST MENTHO PLUS PLAIA PE77967381     
000000007900000000040000005477GALL CEREAL MIX AVE Y MZN7790040714205
000000007900000000040000005478GALL CEREAL MIX AVE Y PAS7790040713703
000000007900000000040000005480GALL CEREAL MIX AVE Y PAS7790040711600
000000007900000000040000005481GALL CEREAL MIX AVE Y MZN7790040711907
000000007900000000040000005489GALL CEREAL MIX AVEN. GRA7790040589902
000000007900000000040000005491GALL ARCOR SCONES X 200 G7790040565203
000000007900000000040000005492GALL ARCOR MEDIALUNITAS X7790040218109
000000007900000000040000005493GALL ARCOR BISCUITS X 1407790040564107
000000007900000000040000005502GALL CEREAL MIX AVEN. GRA7790040715202
000000007900000000040000005507CHOC AGUILA COSTA MARFIL 7790580310615
000000007900000000040000005508GALL TORTITAS FRUT BOSQUE7790040676909
000000007900000000040000005511CHIC TOP LINE KISS MEN X 77949981     
000000007900000000040000005512BOM CABSHA CAJA X 12 UNI7790580219802
000000007900000000040000005515TURRON MISKY X 25 GRS77940148     
000000007900000000040000005520CHUP MR POPS EVOLUTION MZ45520        
000000007900000000040000005521GALL REX ORIG POCKET X 127790040719804
000000007900000000040000005524GOM MOGUL OSITOS X 30 GRS7790580199913
000000007900000000040000005538HELADO SLICE KIWI X 70 CC7790580529901
000000007900000000040000005539BIZC ARCOR D GRASA X 200 7790040455405
000000007900000000040000005540ALFA BLOCK X 60 GRS7790040659605
000000007900000000040000005544GOM MOGUL VIBORITA X 30 G7790580230111
000000007900000000040000005548HUEV BON O BON LECHE X 8 7790580428600
000000007900000000040000005549HUEV BON O BON LECHE X 557790580587901
000000007900000000040000005550HUEV BON O BON LECHE X 257790580057787
000000007900000000040000005550HUEV BON O BON LECHE X 257790580428402
000000007900000000040000005551HUEV BON O BON LECHE X 867790580432409
000000007900000000040000005552HUEV CONEJO BON O BON LEC7790580408114
000000007900000000040000005552HUEV CONEJO BON O BON LEC77940810     
000000007900000000040000005553HUEV COFLER BLOCK X 120 G7790580433109
000000007900000000040000005554HUEV COFLER LECHE Y ALM X7790580433406
000000007900000000040000005555HUEV ROCKLETS LECHE X 60 7790580450403
000000007900000000040000005556HUEV BARBIE X 50 GR7790580460501
000000007900000000040000005557HUEV BEN 10 X 50 GR7790580302907
000000007900000000040000005558HUEV CABSHA LECHE X 55 G7790580293758
000000007900000000040000005559HUEV TOFI X 115 GR7790580229990
000000007900000000040000005559HUEV TOFI X 115 GR7790580299903
000000007900000000040000005560HUEV AGUILA DOR X 160 G7790580452803
000000007900000000040000005579HELADO MR POPS LANZA DISC7790580503802
000000007900000000040000005585ALFA AGUILA MINITORTA LIM7790040565500
000000007900000000040000005589CHIC TOP LINE SANDIA 14 G7790580385514
000000007900000000040000005600GALL CRIOLLITAS BIZCOCHOS7790040545960
000000007900000000040000005603HELADO ROCKLETS COLORES X7790580524104
000000007900000000040000005613GALL RECETAS PEPAS BATATA7790040669000
000000007900000000040000005634CHOC ARCOR MUNDIAL LECHE 7790580640019
000000007900000000040000005635CHOC PELOTA GODY MUNDIAL 45635        
000000007900000000040000005636CHOC COFLER AIR BCO X 1007790407049025
000000007900000000040000005645CHOC AGUILA TABLETA X 1507790407031273
000000007900000000040000005669GALL CRIOLLITAS SIN SAL X7790040946309
000000007900000000040000005677CONF ROCKLETS MUNDIAL X 47790580431006
000000007900000000040000005678CHOC ARCOR CHOKKO SNACK X7790580644215
000000007900000000040000005691ALFA CABSHA BCO X 47 GRS7790040444201
000000007900000000040000005728CHOC COFLER COCO TOSTADO 7790580280215
000000007900000000040000005773CHOC COFLER COCO TOSTADO 7790580274214
000000007900000000040000005774CARAM BC CIRUELA X 16.3 G7793360822612
000000007900000000040000005775CARAM BC FLLA X 16.3 GRS7793360707513
000000007900000000040000005793GALL MACUCAS X 96 GRS7790040467200
000000007900000000040000005799GALL FORMIS VLLA FLLA X 17790040534605
000000007900000000040000005800GALL FORMIS CHOCO VLLA BL7790040534506
000000007900000000040000005809CHOC COFLER LIGHT COOKIES77929242     
000000007900000000040000005815CHOC AGUILA CLAS BCO ALM 7790580604936
000000007900000000040000005820BARRA COFLER EXTRA PERA X77930040     
000000007900000000040000005821PAST MENTHO PLUS POWER CI77972736     
000000007900000000040000005823GALL SER LIMON X 130 GRS7790040727106
000000007900000000040000005828TOSTADAS CRIOLLITAS ARROZ7790040941106
000000007900000000040000005835CHOC SAPITO FLLA X 10 GRS77917393     
000000007900000000040000005836CHOC SAPITO CHOCOLATOSO X77928894     
000000007900000000040000005837CHIC TOP LINE SEVEN MANDA77932693     
000000007900000000040000005838CHIC TOP LINE SEVEN MENTA77931764     
000000007900000000040000005839PAST MENTHO PLUS POWER MO77972743     
000000007900000000040000005842CHIC TOP LINE KISS WOMEN 77949998     
000000007900000000040000005843CHOC CABSHA COMBINADO X 17790580336509
000000007900000000040000005844CHOC CABSHA BCO CON MANI 7790407487100
000000007900000000040000005845CHOC CABSHA LECHE CON MAN7790407487001
000000007900000000040000005853BOCAD AGUILA DOR MOUSSE X77995544     
000000007900000000040000005863TOSTADAS CRIOLLITAS CLASI7790040656802
000000007900000000040000005877HELADO ARCOR COFLER TABLE7790580524500
000000007900000000040000005878HELADO ARCOR KOPA LEMON P7790580502102
000000007900000000040000005879BARRA SER NJA CHOCO X 23 77984371     
000000007900000000040000005880HUEV BARBIE LECHE X 22 GR77995469     
000000007900000000040000005898GALL CRIOLLITAS SEMILLAS 7790040580305
000000007900000000040000005902CHIC TOP LINE SEVEN LEMON77931962     
000000007900000000040000005903GOM MOGUL HAMBURGUESAS X 7790580361815
000000007900000000040000005904GOM MOGUL SHREK X 30 GRS7790580369316
000000007900000000040000005938GALL SALADIX JAMON X 30 G7790580387105
000000007900000000040000005939GALL SALADIX PIZZA X 30 G7790580387006
000000007900000000040000005940GALL SALADIX CALABRESA X 7790580775407
000000007900000000040000005941GALL REX SESAMO X 70 GRS7790040998605
000000007900000000040000005949GALL SONRISAS FRAMBU X 607790040599307
000000007900000000040000005950GALL KESITAS SPACE MAS QU7790040998407
000000007900000000040000005951PAST MENTHO PLUS SPRITE X77902344     
000000007900000000040000005954CHIC GLOBO COWBOY TUTI FR45954        
000000007900000000040000005955CHIC GLOBO COWBOY MENTA X45955        
000000007900000000040000005956CHOC FIG BEN 10 X 20 GRS77981042     
000000007900000000040000005967CHIC NEOGUM EXPERIMENT X 7790580495916
000000007900000000040000005970CHIC TOP LINE SPRITE ZERO77930149     
000000007900000000040000005971CHUP TPOP SPRITE X UNI45971        
000000007900000000040000005977CARAM FIZZ PINTA LENGUA T45977        
000000007900000000040000005978CHUP TPOP TROMPITO X UNI45978        
000000007900000000040000005985GOM MOGUL CRUNCHYS OSITOS7790580765316
000000007900000000040000005986CHOC ARCOR LECHE X 8 GRS77958563     
000000007900000000040000005987GOM MOGUL CEREBRITOS X 307790580169312
000000007900000000040000005990BUDIN SER MARMOLADO X 2507790040330900
000000007900000000040000005991CARAM BC X UNI45991        
000000007900000000040000005994CHIC POOSH MP3 X UNI45994        
000000007900000000040000005995CHIC POOSH CHOCOLATE X UN45995        
000000007900000000040000006002MANI CON CHOCO ARCOR X 207790580421816
000000007900000000040000006015GOM MOGUL GUSAN X 40 GRS7790580765217
000000007900000000040000006016BOCAD CABSHA PLATA X 150 7790580748401
000000007900000000040000006019CARAM BUTTER TOFFEES GOLD46019        
000000007900000000040000006020CARAM BUTTER TOFFEES CARA46020        
000000007900000000040000006021GALL FORMIS BEN 10 RELL C7790040670600
000000007900000000040000006033HELADO NEO GUM SAB SORPRE7790580526009
000000007900000000040000006034GALL RUMBA SHREK COCO X 17790040108202
000000007900000000040000006039GOM MOGUL MURCIELAGO RELL7790580368814
000000007900000000040000006041GALL VOCACION CLASICAS X 7790040177307
000000007900000000040000006046CHOC COFLER LECHE X 300 G7790580361617
000000007900000000040000006047CHOC COFLER LECHE ALM X 37790580361716
000000007900000000040000006056CARAM MASTIC SHREK ANANA 77930163     
000000007900000000040000006060HELADO ARCOR FANTA X 80 C7790580524203
000000007900000000040000006065BOM BON O BON CAFE CHOC X75031022     
000000007900000000040000006067CHIC POOSH BANANA X UNI406067       
000000007900000000040000006068CHIC POOSH YOG FLLA X UNI406068       
000000007900000000040000006069CARAM SAQUITOS RELL X UNI406069       
000000007900000000040000006070CHIC FLICS MENTA X BLISTE406070       
000000007900000000040000006071CHIC FLICS FRUTA X BLISTE406071       
000000007900000000040000006072GALL CHOCOLINAS X 250 GRS7790040111004
000000007900000000040000006073CARAM DULCILAC DDL X UNI406073       
000000007900000000040000006079CHIC TOP LINE RED PASSION77929174     
000000007900000000040000006081GOM GOMOSTRO X 30 GRS7790580719261
000000007900000000040000006082CHIC TATTOO X UNI7790580187903
000000007900000000040000006083CHIC CALABACITA X UNI7790580518608
000000007900000000040000006088BOM BON O BON CAFE CAJA X7502230943087
000000007900000000040000006102HALLOW CARAM MASTIC ESPAN406102       
000000007900000000040000006103CARAM MASTIC MOGUL X UNI406103       
000000007900000000040000006107HALLOW CHICLE TATOO X UNI406107       
000000007900000000040000006108HALLOW VASO ESPANTO CABEZ7790580387716
000000007900000000040000006109HALLOW CASITA TERROR X 177790580387815
000000007900000000040000006110HALLOW CARAM PINTA LENGUA406110       
000000007900000000040000006123HALLOW CALABAZA CON CARAM7790580387617
000000007900000000040000006125PAST MENTHO PLUS CITRIX A77929471     
000000007900000000040000006126PAST MENTHO PLUS CITRIX M77929488     
000000007900000000040000006132HELADO ARCOR OPERA X 74 C7790580502416
000000007900000000040000006139GALL SERRANAS SANDWICH X 7790040704800
000000007900000000040000006140BUDIN ARCOR SIN FRUTAS X 7790040437708
000000007900000000040000006141BUDIN ARCOR MARMOLADO X 2779004040104 
000000007900000000040000006142BUDIN ARCOR CASC LIMON X 7790040437203
000000007900000000040000006143BUDIN ARCOR CHOCOLATE X 27790040437500
000000007900000000040000006144PAN DULCE NOELIA X 400 GR7790040337907
000000007900000000040000006158GOM MOGUL BEN 10 X 30 GRS7790580682316
000000007900000000040000006168CAJA AGUILA PASAS CON CHO7790580416805
000000007900000000040000006169CARAM ARCOR CHOCO MANI X 406169       
000000007900000000040000006170GOM MOGUL CONITOS X 250 G7790580602406
000000007900000000040000006171GOM MOGUL ANILLOS X 250 G7790580436902
000000007900000000040000006178CHOC COFLER CROCANTE X 187790580349714
000000007900000000040000006179CHOC COFLER LECHE X 180 G7790580349615
000000007900000000040000006180CHOC COFLER LECHE X 100 G7790580363215
000000007900000000040000006182BARRA SER PERA X 23 GRS77940599     
000000007900000000040000006183GOM MOGUL EUCALIPTUS X 257790580602314
000000007900000000040000006187GALL SALADIX PANCETA X 807790040695108
000000007900000000040000006188GALL SALADIX QUESO CON CH7790040493506
000000007900000000040000006202GALL BAGLEY SALV S SAL X 7790040999602
000000007900000000040000006228BUDIN BAGLEY S FRUTA X 257790040995208
000000007900000000040000006229BUDIN BAGLEY C FRUTA X 257790040995406
000000007900000000040000006230PAN DULCE BAGLEY C FRUTA 7790040945302
000000007900000000040000006232BARRA CEREAL MIX PAS D CH77984395     
000000007900000000040000006246CHIC NEO GUM ESTIROM TUTT7790580344610
000000007900000000040000006247CAJA NAVIDAD ARCOR2010046247   
000000007900000000040000006248TOSTADAS CRIOLLITAS SALVA7790040675902
000000007900000000040000006259TURRON ARCOR MANI MIEL X 7790580392802
000000007900000000040000006260MANI CON CHOCO ARCOR X 127790580330309
000000007900000000040000006261TURRON ARCOR MANI X 80 GR7790580240400
000000007900000000040000006269CHOCO HAMLET X 52 GR77946121824  
000000007900000000040000006299CHOC ARCOR COMPRIMIDO X 37790580735715
000000007900000000040000006324PAST BEAT BEN 10 X 20 GR7790580376505
000000007900000000040000006329CHUP BEN 10 X 12.5 GRS7790580351618
000000007900000000040000006330CHOCO HAMLET LECHE Y COOK7794612182713
000000007900000000040000006333CHIC POOSH MENTA X UNI2011046333   
000000007900000000040000006334CHIC POOSH TUTTI FRUTI X 2011046334   
000000007900000000040000006338CAJA AGUILA ALME CON CHOC7790580368609
000000007900000000040000006339GALL FORMIS SUPER BLACK X7790040590700
000000007900000000040000006364DDL TOFI X 450 GR2011046364   
000000007900000000040000006364DDL TOFI X 450 GR7790580458201
000000007900000000040000006366CHUP MR POPS EVOLUTION X 2011046366   
000000007900000000040000006373HELADO MR POPS FRUT ANANA77905803940  
000000007900000000040000006374HELADO MR POPS FRUT NJA X77905803888  
000000007900000000040000006382PAST BEAT ROCKS X 5 GR77930187     
000000007900000000040000006391HUEVITOS AGUILA D OR X 147790580765903
000000007900000000040000006395CHOC COFLER COOKIES X 55 7790580695316
000000007900000000040000006396CHOC TORTUGUITA GODY BLAN77961860     
000000007900000000040000006397CHOC TORTUGUITA GODY NEG 77961419     
000000007900000000040000006408FIGURA LIEBRE CABSHA X 507790580615314
000000007900000000040000006430ALFA COFLER MOUSSE BLC X 7790040585201
000000007900000000040000006431ALFA COFLER MOUSSE NGO X 7790040762503
000000007900000000040000006460HEUV AGUILA CLASSIQUE X 17790580281601
000000007900000000040000006461HUEV AGUILA LECHE X 110 G7790580588601
000000007900000000040000006462HUEV BON O BON BLCO X 55 7790580588007
000000007900000000040000006463HUEV CONEJO BON O BON LEC77958839     
000000007900000000040000006464HUEV RELL TORTUGUITA X 137898142857896
000000007900000000040000006474HUEV ARCOR COFLER BLOCK X7790580581602
000000007900000000040000006475HUEV BON O BON BLCO X 2507790580428501
000000007900000000040000006476HUEV AGUILA X 55 GR7790580435202
000000007900000000040000006477HUEV BANDEJA BON O BON BL7790580432607
000000007900000000040000006478HUEV BANDEJA BON O BON NG7790580432102
000000007900000000040000006479HUEV CONEJO ROCKLETS X 117790580464509
000000007900000000040000006480HUEV CONEJO ROCKLETS X 5577946607     
000000007900000000040000006481HUEV CONEJO BON O BON BLC77942937     
000000007900000000040000006482HUEV LIEBRE AGUILA BICOLO7790580461904
000000007900000000040000006485HUEV ROCKLETS X 135 GR7790580285807
000000007900000000040000006486BARRA D MANI COFLER BLOCK7790580740801
000000007900000000040000006487HUEV TORTUGUITA X 22 GR77902733     
000000007900000000040000006501GOM MOGUL MORITAS X 40 GR7790580342616
000000007900000000040000006517CHOC AGUILA MARQUISE X 107790580725815
000000007900000000040000006518CHOC AGUILA CREMA CATALAN7790580725914
000000007900000000040000006523CARAM BC ARANDANO X 16.3 7793360196713
000000007900000000040000006524CHOC COFLER BLOCK DUO X 77790580670115
000000007900000000040000006541CHOC C ALM ARCOR 60 ANOS 7790580848613
000000007900000000040000006560PROMO COFLER AIR X 30 GR 2011046560   
000000007900000000040000006561PROMO MENTHO PLUS 2 X 3.52011046561   
000000007900000000040000006562PROMO COFLER BLOCK X 38 G2011046562   
000000007900000000040000006563CARAM BUTTER SURTIDO ED A7790580798802
000000007900000000040000006563CARAM BUTTER SURTIDO ED A779058798802 
000000007900000000040000006566GOM MOGUL DUO X 25 GR7790580864910
000000007900000000040000006567GALL RUMBA CHOCOLATOSA X 7790040947603
000000007900000000040000006567GALL RUMBA CHOCOLATOSA X 7790040947608
000000007900000000040000006569CHOC COFLER LECHE ALM X 17790580349516
000000007900000000040000006578GALL SELEC ARCOR ANIV LAT7790040861206
